:03000000020C0DE2
:0C0C0D00787FE4F6D8FD75811C020C37DE
:100BB600D3EF9400EE940040147D6E7C00ED1D7022
:0D0BC600011CED4C70F7EF1F70E61E80E380
:010BD30022FF
:100B4100E4F51CAF1C120BFEEF600EAF1C7E001211
:100B5100094E7FB87E0B120BB67F017E00120BB6D9
:090B6100051CE51CC3948040DA78
:010B6A002268
:080C3700120BD4120B4180FEE8
:060C4700E4FF0FBF0AFCF0
:010C4D002284
:0A0C1900D280D281120C47C2802263
:070BED00EF120846120C2371
:0A0BF400C280D281120C47D2802289
:020AE600AD075A
:100AE8007B08AF031BEF6024C28174017E00A8035A
:100AF800088005C333CE33CED8F9FFEDF582EF5524
:0C0B08008224FF9280120C47D28180D61C
:010B140022BE
:100B6B007E08E4FDAF061EEF6019D28130800D7454
:100B7B0001A806088002C333D8FC4205120C47C2F9
:050B8B008180E1AF05CF
:010B90002242
:070C4E00C281C280D28122A5
:0A0C2300C281D280120C47D2812258
:0C0B1500AE07120C19EE25E0FF120AE6F4
:100B2100E4FEC281D280120C47D28130800D0EEEDC
:0F0B3100D394FA40F6120BF47F0122C2817F00A9
:010B40002292
:0F0BFE00120B15EF60037F0022120BF47F012210
:100AB500AE07AC03AA05120B17EF60037F0022AF48
:100AC50002120AE6120B21EF60037F0022AF041227
:100AD5000AE6120B21EF60037F0022120BF47F015F
:010AE50022EE
:1009EE008D148B158A168917AC07120C19EC120B85
:1009FE001BEF60037F0022AF14120AE6120B21EFE9
:100A0E0060037F0022120C19EC25E04401120B1D2D
:100A1E00EF60037F0022120B6BAB15AA16A91712FB
:050A2E000BED7F012229
:0809A7008B0A8A0B890CAC05D8
:1009AF00120B15EF60037F0022AF04120AE6120B41
:1009BF0021EF60037F0022E4FCECC3950D501AABCE
:1009CF000AAA0BA90C8C82758300120819120B1D31
:0E09DF00EF60037F00220C80E0120BF47F011A
:0109ED0022E7
:0A08E3008D0F8B108A118912AC07EB
:1008ED00120C19EC120B1BEF60037F0022AF0F12DD
:1008FD000AE6120B21EF60037F0022120C19EC2582
:10090D00E04401120B1DEF60037F0022E4FCE513B0
:10091D0014FFECC39F501B120B6BAB100512E512AD
:10092D00AA117002051114F9EF120846120C4E0CA3
:10093D0080DC120B6BAB10AA11A912120BED7F010B
:01094D002287
:100BD400759850438780D2AC53890F438920758B15
:090BE400FA758DFAC2ABD28E2223
:080C3F008F993099FDC2992242
:0A0C2D007F0D120C3F7F0A020C3FFE
:100B91008B188A19891AAB18AA19A91A12080060A8
:100BA10013051AE51A7002051914F9120800FF124B
:050BB1000C3F80E22270
:060C5500120B91020C2DB0
:100A7500151B151BA81BA60608A607A81BE6FE083E
:100A8500E6FFD39409EE64809480400A7C007D0AD9
:100A9500120858120A75A81BE6FE08E6FF7C007DC1
:100AA5000A120858ED2430FF120C3F051B051B22C6
:0D094E00151B151BA81BA60608A607151BE8
:10095B00A81B08E6FE08E6FFD3940FEE6480948094
:10096B00400A7C007D1012085812094EA81B08E69D
:10097B00FE08E6FF7C007D10120858AF05A81BEFA0
:10098B00F6C36480948AA81BE650042430800224AA
:05099B0037FF120C3FC4
:0709A000051B051B051B22CE
:03002300020A339B
:100A3300C0E0C0F0C083C082C0D075D000C000C089
:100A430001C002C003C004C005C006C00730980738
:100A5300AF99120000C298D007D006D005D004D0B9
:100A630003D002D001D000D0D0D082D083D0F0D038
:020A7300E0326F
:10080000BB010689828A83E0225002E722BBFE02F6
:09081000E32289828A83E4932229
:10081900BB010CE58229F582E5833AF583E0225094
:1008290006E92582F8E622BBFE06E92582F8E222DE
:0D083900E58229F582E5833AF583E49322F8
:10084600BB010689828A83F0225002F722BBFE0191
:02085600F3228B
:10085800C2D5EC30E709B2D5E4C39DFDE49CFCEEBB
:1008680030E715B2D5E4C39FFFE49EFE12088EC39D
:10087800E49DFDE49CFC800312088E30D507C3E498
:060888009FFFE49EFE222A
:10088E00BC000BBE0029EF8DF084FFADF022E4CC4E
:10089E00F875F008EF2FFFEE33FEEC33FCEE9DEC17
:1008AE00984005FCEE9DFE0FD5F0E9E4CEFD22ED5D
:1008BE00F8F5F0EE8420D21CFEADF075F008EF2FA7
:1008CE00FFED33FD4007985006D5F0F222C398FD98
:0508DE000FD5F0EA2235
:00000001FF
